{
  "_format": "hh-sol-artifact-1",
  "contractName": "Domains",
  "sourceName": "contracts/Domains.sol",
  "abi": [
    {
      "inputs": [
        {
          "internalType": "string",
          "name": "_tld",
          "type": "string"
        }
      ],
      "stateMutability": "payable",
      "type": "constructor"
    },
    {
      "anonymous": false,
      "inputs": [
        {
          "indexed": true,
          "internalType": "address",
          "name": "owner",
          "type": "address"
        },
        {
          "indexed": true,
          "internalType": "address",
          "name": "approved",
          "type": "address"
        },
        {
          "indexed": true,
          "internalType": "uint256",
          "name": "tokenId",
          "type": "uint256"
        }
      ],
      "name": "Approval",
      "type": "event"
    },
    {
      "anonymous": false,
      "inputs": [
        {
          "indexed": true,
          "internalType": "address",
          "name": "owner",
          "type": "address"
        },
        {
          "indexed": true,
          "internalType": "address",
          "name": "operator",
          "type": "address"
        },
        {
          "indexed": false,
          "internalType": "bool",
          "name": "approved",
          "type": "bool"
        }
      ],
      "name": "ApprovalForAll",
      "type": "event"
    },
    {
      "anonymous": false,
      "inputs": [
        {
          "indexed": true,
          "internalType": "address",
          "name": "from",
          "type": "address"
        },
        {
          "indexed": true,
          "internalType": "address",
          "name": "to",
          "type": "address"
        },
        {
          "indexed": true,
          "internalType": "uint256",
          "name": "tokenId",
          "type": "uint256"
        }
      ],
      "name": "Transfer",
      "type": "event"
    },
    {
      "inputs": [
        {
          "internalType": "address",
          "name": "to",
          "type": "address"
        },
        {
          "internalType": "uint256",
          "name": "tokenId",
          "type": "uint256"
        }
      ],
      "name": "approve",
      "outputs": [],
      "stateMutability": "nonpayable",
      "type": "function"
    },
    {
      "inputs": [
        {
          "internalType": "address",
          "name": "owner",
          "type": "address"
        }
      ],
      "name": "balanceOf",
      "outputs": [
        {
          "internalType": "uint256",
          "name": "",
          "type": "uint256"
        }
      ],
      "stateMutability": "view",
      "type": "function"
    },
    {
      "inputs": [
        {
          "internalType": "string",
          "name": "",
          "type": "string"
        }
      ],
      "name": "domains",
      "outputs": [
        {
          "internalType": "address",
          "name": "",
          "type": "address"
        }
      ],
      "stateMutability": "view",
      "type": "function"
    },
    {
      "inputs": [
        {
          "internalType": "string",
          "name": "name",
          "type": "string"
        }
      ],
      "name": "getAddress",
      "outputs": [
        {
          "internalType": "address",
          "name": "",
          "type": "address"
        }
      ],
      "stateMutability": "view",
      "type": "function"
    },
    {
      "inputs": [
        {
          "internalType": "uint256",
          "name": "tokenId",
          "type": "uint256"
        }
      ],
      "name": "getApproved",
      "outputs": [
        {
          "internalType": "address",
          "name": "",
          "type": "address"
        }
      ],
      "stateMutability": "view",
      "type": "function"
    },
    {
      "inputs": [
        {
          "internalType": "string",
          "name": "name",
          "type": "string"
        }
      ],
      "name": "getRecord",
      "outputs": [
        {
          "internalType": "string",
          "name": "",
          "type": "string"
        }
      ],
      "stateMutability": "view",
      "type": "function"
    },
    {
      "inputs": [
        {
          "internalType": "address",
          "name": "owner",
          "type": "address"
        },
        {
          "internalType": "address",
          "name": "operator",
          "type": "address"
        }
      ],
      "name": "isApprovedForAll",
      "outputs": [
        {
          "internalType": "bool",
          "name": "",
          "type": "bool"
        }
      ],
      "stateMutability": "view",
      "type": "function"
    },
    {
      "inputs": [],
      "name": "name",
      "outputs": [
        {
          "internalType": "string",
          "name": "",
          "type": "string"
        }
      ],
      "stateMutability": "view",
      "type": "function"
    },
    {
      "inputs": [
        {
          "internalType": "uint256",
          "name": "tokenId",
          "type": "uint256"
        }
      ],
      "name": "ownerOf",
      "outputs": [
        {
          "internalType": "address",
          "name": "",
          "type": "address"
        }
      ],
      "stateMutability": "view",
      "type": "function"
    },
    {
      "inputs": [
        {
          "internalType": "string",
          "name": "name",
          "type": "string"
        }
      ],
      "name": "price",
      "outputs": [
        {
          "internalType": "uint256",
          "name": "",
          "type": "uint256"
        }
      ],
      "stateMutability": "pure",
      "type": "function"
    },
    {
      "inputs": [
        {
          "internalType": "string",
          "name": "",
          "type": "string"
        }
      ],
      "name": "records",
      "outputs": [
        {
          "internalType": "string",
          "name": "",
          "type": "string"
        }
      ],
      "stateMutability": "view",
      "type": "function"
    },
    {
      "inputs": [
        {
          "internalType": "string",
          "name": "name",
          "type": "string"
        }
      ],
      "name": "register",
      "outputs": [],
      "stateMutability": "payable",
      "type": "function"
    },
    {
      "inputs": [
        {
          "internalType": "address",
          "name": "from",
          "type": "address"
        },
        {
          "internalType": "address",
          "name": "to",
          "type": "address"
        },
        {
          "internalType": "uint256",
          "name": "tokenId",
          "type": "uint256"
        }
      ],
      "name": "safeTransferFrom",
      "outputs": [],
      "stateMutability": "nonpayable",
      "type": "function"
    },
    {
      "inputs": [
        {
          "internalType": "address",
          "name": "from",
          "type": "address"
        },
        {
          "internalType": "address",
          "name": "to",
          "type": "address"
        },
        {
          "internalType": "uint256",
          "name": "tokenId",
          "type": "uint256"
        },
        {
          "internalType": "bytes",
          "name": "_data",
          "type": "bytes"
        }
      ],
      "name": "safeTransferFrom",
      "outputs": [],
      "stateMutability": "nonpayable",
      "type": "function"
    },
    {
      "inputs": [
        {
          "internalType": "address",
          "name": "operator",
          "type": "address"
        },
        {
          "internalType": "bool",
          "name": "approved",
          "type": "bool"
        }
      ],
      "name": "setApprovalForAll",
      "outputs": [],
      "stateMutability": "nonpayable",
      "type": "function"
    },
    {
      "inputs": [
        {
          "internalType": "string",
          "name": "name",
          "type": "string"
        },
        {
          "internalType": "string",
          "name": "record",
          "type": "string"
        }
      ],
      "name": "setRecord",
      "outputs": [],
      "stateMutability": "nonpayable",
      "type": "function"
    },
    {
      "inputs": [
        {
          "internalType": "bytes4",
          "name": "interfaceId",
          "type": "bytes4"
        }
      ],
      "name": "supportsInterface",
      "outputs": [
        {
          "internalType": "bool",
          "name": "",
          "type": "bool"
        }
      ],
      "stateMutability": "view",
      "type": "function"
    },
    {
      "inputs": [],
      "name": "symbol",
      "outputs": [
        {
          "internalType": "string",
          "name": "",
          "type": "string"
        }
      ],
      "stateMutability": "view",
      "type": "function"
    },
    {
      "inputs": [],
      "name": "tld",
      "outputs": [
        {
          "internalType": "string",
          "name": "",
          "type": "string"
        }
      ],
      "stateMutability": "view",
      "type": "function"
    },
    {
      "inputs": [
        {
          "internalType": "uint256",
          "name": "tokenId",
          "type": "uint256"
        }
      ],
      "name": "tokenURI",
      "outputs": [
        {
          "internalType": "string",
          "name": "",
          "type": "string"
        }
      ],
      "stateMutability": "view",
      "type": "function"
    },
    {
      "inputs": [
        {
          "internalType": "address",
          "name": "from",
          "type": "address"
        },
        {
          "internalType": "address",
          "name": "to",
          "type": "address"
        },
        {
          "internalType": "uint256",
          "name": "tokenId",
          "type": "uint256"
        }
      ],
      "name": "transferFrom",
      "outputs": [],
      "stateMutability": "nonpayable",
      "type": "function"
    }
  ],
  "bytecode": "0x6080604052604051806111400160405280611108815260200162004a796111089139600990805190602001906200003892919062000287565b506040518060400160405280600d81526020017f3c2f746578743e3c2f7376673e00000000000000000000000000000000000000815250600a90805190602001906200008692919062000287565b5060405162005b8138038062005b818339818101604052810190620000ac9190620004d4565b6040518060400160405280601081526020017f4d5f4d204e616d652053657276696365000000000000000000000000000000008152506040518060400160405280600481526020017f4d4d4e530000000000000000000000000000000000000000000000000000000081525081600090805190602001906200013092919062000287565b5080600190805190602001906200014992919062000287565b50505080600890805190602001906200016492919062000287565b50620001b16040518060400160405280601881526020017f2573206e616d652073657276696365206465706c6f796564000000000000000081525082620001b860201b620015ee1760201c565b5062000622565b6200025a8282604051602401620001d192919062000582565b6040516020818303038152906040527f4b5c4277000000000000000000000000000000000000000000000000000000007bffffffffffffffffffffffffffffffffffffffffffffffffffffffff19166020820180517bffffffffffffffffffffffffffffffffffffffffffffffffffffffff83818316178352505050506200025e60201b60201c565b5050565b60008151905060006a636f6e736f6c652e6c6f679050602083016000808483855afa5050505050565b8280546200029590620005ec565b90600052602060002090601f016020900481019282620002b9576000855562000305565b82601f10620002d457805160ff191683800117855562000305565b8280016001018555821562000305579182015b8281111562000304578251825591602001919060010190620002e7565b5b50905062000314919062000318565b5090565b5b808211156200033357600081600090555060010162000319565b5090565b6000604051905090565b600080fd5b600080fd5b600080fd5b600080fd5b6000601f19601f8301169050919050565b7f4e487b7100000000000000000000000000000000000000000000000000000000600052604160045260246000fd5b620003a08262000355565b810181811067ffffffffffffffff82111715620003c257620003c162000366565b5b80604052505050565b6000620003d762000337565b9050620003e5828262000395565b919050565b600067ffffffffffffffff82111562000408576200040762000366565b5b620004138262000355565b9050602081019050919050565b60005b838110156200044057808201518184015260208101905062000423565b8381111562000450576000848401525b50505050565b60006200046d6200046784620003ea565b620003cb565b9050828152602081018484840111156200048c576200048b62000350565b5b6200049984828562000420565b509392505050565b600082601f830112620004b957620004b86200034b565b5b8151620004cb84826020860162000456565b91505092915050565b600060208284031215620004ed57620004ec62000341565b5b600082015167ffffffffffffffff8111156200050e576200050d62000346565b5b6200051c84828501620004a1565b91505092915050565b600081519050919050565b600082825260208201905092915050565b60006200054e8262000525565b6200055a818562000530565b93506200056c81856020860162000420565b620005778162000355565b840191505092915050565b600060408201905081810360008301526200059e818562000541565b90508181036020830152620005b4818462000541565b90509392505050565b7f4e487b7100000000000000000000000000000000000000000000000000000000600052602260045260246000fd5b600060028204905060018216806200060557607f821691505b602082108114156200061c576200061b620005bd565b5b50919050565b61444780620006326000396000f3fe60806040526004361061012a5760003560e01c80636352211e116100ab578063bf40fac11161006f578063bf40fac114610428578063c1880a9814610465578063c87b56dd1461048e578063e985e9c5146104cb578063f2c298be14610508578063fe2c6198146105245761012a565b80636352211e1461033157806370a082311461036e57806395d89b41146103ab578063a22cb465146103d6578063b88d4fde146103ff5761012a565b806323b872dd116100f257806323b872dd1461023a57806326449235146102635780632d551432146102a057806342842e0e146102cb578063541e771d146102f45761012a565b806301ffc9a71461012f57806306fdde031461016c578063081812fc14610197578063095ea7b3146101d457806311dd8845146101fd575b600080fd5b34801561013b57600080fd5b5061015660048036038101906101519190612a34565b610561565b6040516101639190612a7c565b60405180910390f35b34801561017857600080fd5b50610181610643565b60405161018e9190612b30565b60405180910390f35b3480156101a357600080fd5b506101be60048036038101906101b99190612b88565b6106d5565b6040516101cb9190612bf6565b60405180910390f35b3480156101e057600080fd5b506101fb60048036038101906101f69190612c3d565b61075a565b005b34801561020957600080fd5b50610224600480360381019061021f9190612ce2565b610872565b6040516102319190612b30565b60405180910390f35b34801561024657600080fd5b50610261600480360381019061025c9190612d2f565b610925565b005b34801561026f57600080fd5b5061028a60048036038101906102859190612eb2565b610985565b6040516102979190612bf6565b60405180910390f35b3480156102ac57600080fd5b506102b56109ce565b6040516102c29190612b30565b60405180910390f35b3480156102d757600080fd5b506102f260048036038101906102ed9190612d2f565b610a5c565b005b34801561030057600080fd5b5061031b60048036038101906103169190612eb2565b610a7c565b6040516103289190612b30565b60405180910390f35b34801561033d57600080fd5b5061035860048036038101906103539190612b88565b610b32565b6040516103659190612bf6565b60405180910390f35b34801561037a57600080fd5b5061039560048036038101906103909190612efb565b610be4565b6040516103a29190612f37565b60405180910390f35b3480156103b757600080fd5b506103c0610c9c565b6040516103cd9190612b30565b60405180910390f35b3480156103e257600080fd5b506103fd60048036038101906103f89190612f7e565b610d2e565b005b34801561040b57600080fd5b506104266004803603810190610421919061305f565b610d44565b005b34801561043457600080fd5b5061044f600480360381019061044a9190612ce2565b610da6565b60405161045c9190612bf6565b60405180910390f35b34801561047157600080fd5b5061048c600480360381019061048791906130e2565b610df1565b005b34801561049a57600080fd5b506104b560048036038101906104b09190612b88565b610e9f565b6040516104c29190612b30565b60405180910390f35b3480156104d757600080fd5b506104f260048036038101906104ed9190613163565b610ff1565b6040516104ff9190612a7c565b60405180910390f35b610522600480360381019061051d9190612ce2565b611085565b005b34801561053057600080fd5b5061054b60048036038101906105469190612ce2565b611548565b6040516105589190612f37565b60405180910390f35b60007f80ac58cd000000000000000000000000000000000000000000000000000000007bffffffffffffffffffffffffffffffffffffffffffffffffffffffff1916827bffffffffffffffffffffffffffffffffffffffffffffffffffffffff1916148061062c57507f5b5e139f000000000000000000000000000000000000000000000000000000007bffffffffffffffffffffffffffffffffffffffffffffffffffffffff1916827bffffffffffffffffffffffffffffffffffffffffffffffffffffffff1916145b8061063c575061063b8261168a565b5b9050919050565b606060008054610652906131d2565b80601f016020809104026020016040519081016040528092919081815260200182805461067e906131d2565b80156106cb5780601f106106a0576101008083540402835291602001916106cb565b820191906000526020600020905b8154815290600101906020018083116106ae57829003601f168201915b5050505050905090565b60006106e0826116f4565b61071f576040517f08c379a000000000000000000000000000000000000000000000000000000000815260040161071690613276565b60405180910390fd5b6004600083815260200190815260200160002060009054906101000a900473ffffffffffffffffffffffffffffffffffffffff169050919050565b600061076582610b32565b90508073ffffffffffffffffffffffffffffffffffffffff168373ffffffffffffffffffffffffffffffffffffffff1614156107d6576040517f08c379a00000000000000000000000000000000000000000000000000000000081526004016107cd90613308565b60405180910390fd5b8073ffffffffffffffffffffffffffffffffffffffff166107f5611760565b73ffffffffffffffffffffffffffffffffffffffff16148061082457506108238161081e611760565b610ff1565b5b610863576040517f08c379a000000000000000000000000000000000000000000000000000000000815260040161085a9061339a565b60405180910390fd5b61086d8383611768565b505050565b6060600c83836040516108869291906133ea565b9081526020016040518091039020805461089f906131d2565b80601f01602080910402602001604051908101604052809291908181526020018280546108cb906131d2565b80156109185780601f106108ed57610100808354040283529160200191610918565b820191906000526020600020905b8154815290600101906020018083116108fb57829003601f168201915b5050505050905092915050565b610936610930611760565b82611821565b610975576040517f08c379a000000000000000000000000000000000000000000000000000000000815260040161096c90613475565b60405180910390fd5b6109808383836118ff565b505050565b600b818051602081018201805184825260208301602085012081835280955050505050506000915054906101000a900473ffffffffffffffffffffffffffffffffffffffff1681565b600880546109db906131d2565b80601f0160208091040260200160405190810160405280929190818152602001828054610a07906131d2565b8015610a545780601f10610a2957610100808354040283529160200191610a54565b820191906000526020600020905b815481529060010190602001808311610a3757829003601f168201915b505050505081565b610a7783838360405180602001604052806000815250610d44565b505050565b600c818051602081018201805184825260208301602085012081835280955050505050506000915090508054610ab1906131d2565b80601f0160208091040260200160405190810160405280929190818152602001828054610add906131d2565b8015610b2a5780601f10610aff57610100808354040283529160200191610b2a565b820191906000526020600020905b815481529060010190602001808311610b0d57829003601f168201915b505050505081565b6000806002600084815260200190815260200160002060009054906101000a900473ffffffffffffffffffffffffffffffffffffffff169050600073ffffffffffffffffffffffffffffffffffffffff168173ffffffffffffffffffffffffffffffffffffffff161415610bdb576040517f08c379a0000000000000000000000000000000000000000000000000000000008152600401610bd290613507565b60405180910390fd5b80915050919050565b60008073ffffffffffffffffffffffffffffffffffffffff168273ffffffffffffffffffffffffffffffffffffffff161415610c55576040517f08c379a0000000000000000000000000000000000000000000000000000000008152600401610c4c90613599565b60405180910390fd5b600360008373ffffffffffffffffffffffffffffffffffffffff1673ffffffffffffffffffffffffffffffffffffffff168152602001908152602001600020549050919050565b606060018054610cab906131d2565b80601f0160208091040260200160405190810160405280929190818152602001828054610cd7906131d2565b8015610d245780601f10610cf957610100808354040283529160200191610d24565b820191906000526020600020905b815481529060010190602001808311610d0757829003601f168201915b5050505050905090565b610d40610d39611760565b8383611b66565b5050565b610d55610d4f611760565b83611821565b610d94576040517f08c379a0000000000000000000000000000000000000000000000000000000008152600401610d8b90613475565b60405180910390fd5b610da084848484611cd3565b50505050565b6000600b8383604051610dba9291906133ea565b908152602001604051809103902060009054906101000a900473ffffffffffffffffffffffffffffffffffffffff16905092915050565b3373ffffffffffffffffffffffffffffffffffffffff16600b8585604051610e1a9291906133ea565b908152602001604051809103902060009054906101000a900473ffffffffffffffffffffffffffffffffffffffff1673ffffffffffffffffffffffffffffffffffffffff1614610e6957600080fd5b8181600c8686604051610e7d9291906133ea565b90815260200160405180910390209190610e9892919061289f565b5050505050565b6060610eaa826116f4565b610ee9576040517f08c379a0000000000000000000000000000000000000000000000000000000008152600401610ee09061362b565b60405180910390fd5b6000600660008481526020019081526020016000208054610f09906131d2565b80601f0160208091040260200160405190810160405280929190818152602001828054610f35906131d2565b8015610f825780601f10610f5757610100808354040283529160200191610f82565b820191906000526020600020905b815481529060010190602001808311610f6557829003601f168201915b505050505090506000610f93611d2f565b9050600081511415610fa9578192505050610fec565b600082511115610fde578082604051602001610fc692919061367c565b60405160208183030381529060405292505050610fec565b610fe784611d46565b925050505b919050565b6000600560008473ffffffffffffffffffffffffffffffffffffffff1673ffffffffffffffffffffffffffffffffffffffff16815260200190815260200160002060008373ffffffffffffffffffffffffffffffffffffffff1673ffffffffffffffffffffffffffffffffffffffff16815260200190815260200160002060009054906101000a900460ff16905092915050565b600073ffffffffffffffffffffffffffffffffffffffff16600b83836040516110af9291906133ea565b908152602001604051809103902060009054906101000a900473ffffffffffffffffffffffffffffffffffffffff1673ffffffffffffffffffffffffffffffffffffffff16146110fe57600080fd5b600061110a8383611548565b90508034101561114f576040517f08c379a0000000000000000000000000000000000000000000000000000000008152600401611146906136ec565b60405180910390fd5b33600b84846040516111629291906133ea565b908152602001604051809103902060006101000a81548173ffffffffffffffffffffffffffffffffffffffff021916908373ffffffffffffffffffffffffffffffffffffffff1602179055506112316040518060400160405280601b81526020017f2573206861732072656769737465726564206120646f6d61696e20000000000081525084848080601f016020809104026020016040519081016040528093929190818152602001838380828437600081840152601f19601f820116905080830192505050505050506115ee565b600083836008604051602001611249939291906137ec565b60405160208183030381529060405290506000600982600a6040516020016112739392919061381d565b604051602081830303815290604052905060006112906007611ded565b905060006112e187878080601f016020809104026020016040519081016040528093929190818152602001838380828437600081840152601f19601f82011690508083019250505050505050611dfb565b905060006112ee82611fb0565b90506113e26040518060600160405280603381526020016143df6033913989898080601f016020809104026020016040519081016040528093929190818152602001838380828437600081840152601f19601f820116905080830192505050505050506008805461135e906131d2565b80601f016020809104026020016040519081016040528092919081815260200182805461138a906131d2565b80156113d75780601f106113ac576101008083540402835291602001916113d7565b820191906000526020600020905b8154815290600101906020018083116113ba57829003601f168201915b505050505086612111565b6000611418866113f1876121b3565b8460405160200161140493929190613a16565b6040516020818303038152906040526121b3565b905060008160405160200161142d9190613aca565b604051602081830303815290604052905061145f60405180606001604052806039815260200161432d6039913961234b565b61149e6040518060400160405280600e81526020017f46696e616c20746f6b656e555249000000000000000000000000000000000000815250826115ee565b6114bf6040518060600160405280603981526020016143666039913961234b565b6114c933866123e4565b6114d38582612402565b33600b8b8b6040516114e69291906133ea565b908152602001604051809103902060006101000a81548173ffffffffffffffffffffffffffffffffffffffff021916908373ffffffffffffffffffffffffffffffffffffffff16021790555061153c6007612476565b50505050505050505050565b60008061159884848080601f016020809104026020016040519081016040528093929190818152602001838380828437600081840152601f19601f82011690508083019250505050505050611dfb565b9050600081116115a757600080fd5b60038114156115c1576706f05b59d3b200009150506115e8565b60048114156115db57670429d069189e00009150506115e8565b67016345785d8a00009150505b92915050565b6116868282604051602401611604929190613aec565b6040516020818303038152906040527f4b5c4277000000000000000000000000000000000000000000000000000000007bffffffffffffffffffffffffffffffffffffffffffffffffffffffff19166020820180517bffffffffffffffffffffffffffffffffffffffffffffffffffffffff838183161783525050505061248c565b5050565b60007f01ffc9a7000000000000000000000000000000000000000000000000000000007bffffffffffffffffffffffffffffffffffffffffffffffffffffffff1916827bffffffffffffffffffffffffffffffffffffffffffffffffffffffff1916149050919050565b60008073ffffffffffffffffffffffffffffffffffffffff166002600084815260200190815260200160002060009054906101000a900473ffffffffffffffffffffffffffffffffffffffff1673ffffffffffffffffffffffffffffffffffffffff1614159050919050565b600033905090565b816004600083815260200190815260200160002060006101000a81548173ffffffffffffffffffffffffffffffffffffffff021916908373ffffffffffffffffffffffffffffffffffffffff160217905550808273ffffffffffffffffffffffffffffffffffffffff166117db83610b32565b73ffffffffffffffffffffffffffffffffffffffff167f8c5be1e5ebec7d5bd14f71427d1e84f3dd0314c0f7b2291e5b200ac8c7c3b92560405160405180910390a45050565b600061182c826116f4565b61186b576040517f08c379a000000000000000000000000000000000000000000000000000000000815260040161186290613b95565b60405180910390fd5b600061187683610b32565b90508073ffffffffffffffffffffffffffffffffffffffff168473ffffffffffffffffffffffffffffffffffffffff1614806118e557508373ffffffffffffffffffffffffffffffffffffffff166118cd846106d5565b73ffffffffffffffffffffffffffffffffffffffff16145b806118f657506118f58185610ff1565b5b91505092915050565b8273ffffffffffffffffffffffffffffffffffffffff1661191f82610b32565b73ffffffffffffffffffffffffffffffffffffffff1614611975576040517f08c379a000000000000000000000000000000000000000000000000000000000815260040161196c90613c27565b60405180910390fd5b600073ffffffffffffffffffffffffffffffffffffffff168273ffffffffffffffffffffffffffffffffffffffff1614156119e5576040517f08c379a00000000000000000000000000000000000000000000000000000000081526004016119dc90613cb9565b60405180910390fd5b6119f08383836124b5565b6119fb600082611768565b6001600360008573ffffffffffffffffffffffffffffffffffffffff1673ffffffffffffffffffffffffffffffffffffffff1681526020019081526020016000206000828254611a4b9190613d08565b925050819055506001600360008473ffffffffffffffffffffffffffffffffffffffff1673ffffffffffffffffffffffffffffffffffffffff1681526020019081526020016000206000828254611aa29190613d3c565b92505081905550816002600083815260200190815260200160002060006101000a81548173ffffffffffffffffffffffffffffffffffffffff021916908373ffffffffffffffffffffffffffffffffffffffff160217905550808273ffffffffffffffffffffffffffffffffffffffff168473ffffffffffffffffffffffffffffffffffffffff167fddf252ad1be2c89b69c2b068fc378daa952ba7f163c4a11628f55a4df523b3ef60405160405180910390a4611b618383836124ba565b505050565b8173ffffffffffffffffffffffffffffffffffffffff168373ffffffffffffffffffffffffffffffffffffffff161415611bd5576040517f08c379a0000000000000000000000000000000000000000000000000000000008152600401611bcc90613dde565b60405180910390fd5b80600560008573ffffffffffffffffffffffffffffffffffffffff1673ffffffffffffffffffffffffffffffffffffffff16815260200190815260200160002060008473ffffffffffffffffffffffffffffffffffffffff1673ffffffffffffffffffffffffffffffffffffffff16815260200190815260200160002060006101000a81548160ff0219169083151502179055508173ffffffffffffffffffffffffffffffffffffffff168373ffffffffffffffffffffffffffffffffffffffff167f17307eab39ab6107e8899845ad3d59bd9653f200f220920489ca2b5937696c3183604051611cc69190612a7c565b60405180910390a3505050565b611cde8484846118ff565b611cea848484846124bf565b611d29576040517f08c379a0000000000000000000000000000000000000000000000000000000008152600401611d2090613e70565b60405180910390fd5b50505050565b606060405180602001604052806000815250905090565b6060611d51826116f4565b611d90576040517f08c379a0000000000000000000000000000000000000000000000000000000008152600401611d8790613f02565b60405180910390fd5b6000611d9a611d2f565b90506000815111611dba5760405180602001604052806000815250611de5565b80611dc484611fb0565b604051602001611dd592919061367c565b6040516020818303038152906040525b915050919050565b600081600001549050919050565b60008060008084519050600092505b80821015611fa5576000858381518110611e2757611e26613f22565b5b602001015160f81c60f81b9050608060f81b817effffffffffffffffffffffffffffffffffffffffffffffffffffffffffffff19161015611e7657600183611e6f9190613d3c565b9250611f91565b60e060f81b817effffffffffffffffffffffffffffffffffffffffffffffffffffffffffffff19161015611eb857600283611eb19190613d3c565b9250611f90565b60f060f81b817effffffffffffffffffffffffffffffffffffffffffffffffffffffffffffff19161015611efa57600383611ef39190613d3c565b9250611f8f565b60f8801b817effffffffffffffffffffffffffffffffffffffffffffffffffffffffffffff19161015611f3b57600483611f349190613d3c565b9250611f8e565b60fc60f81b817effffffffffffffffffffffffffffffffffffffffffffffffffffffffffffff19161015611f7d57600583611f769190613d3c565b9250611f8d565b600683611f8a9190613d3c565b92505b5b5b5b5b508280611f9d90613f51565b935050611e0a565b829350505050919050565b60606000821415611ff8576040518060400160405280600181526020017f3000000000000000000000000000000000000000000000000000000000000000815250905061210c565b600082905060005b6000821461202a57808061201390613f51565b915050600a826120239190613fc9565b9150612000565b60008167ffffffffffffffff81111561204657612045612d87565b5b6040519080825280601f01601f1916602001820160405280156120785781602001600182028036833780820191505090505b5090505b60008514612105576001826120919190613d08565b9150600a856120a09190613ffa565b60306120ac9190613d3c565b60f81b8183815181106120c2576120c1613f22565b5b60200101907effffffffffffffffffffffffffffffffffffffffffffffffffffffffffffff1916908160001a905350600a856120fe9190613fc9565b945061207c565b8093505050505b919050565b6121ad8484848460405160240161212b949392919061402b565b6040516020818303038152906040527f9fd009f5000000000000000000000000000000000000000000000000000000007bffffffffffffffffffffffffffffffffffffffffffffffffffffffff19166020820180517bffffffffffffffffffffffffffffffffffffffffffffffffffffffff838183161783525050505061248c565b50505050565b606060008251905060008114156121dc5760405180602001604052806000815250915050612346565b600060036002836121ed9190613d3c565b6121f79190613fc9565b60046122039190614085565b905060006020826122149190613d3c565b67ffffffffffffffff81111561222d5761222c612d87565b5b6040519080825280601f01601f19166020018201604052801561225f5781602001600182028036833780820191505090505b509050600060405180606001604052806040815260200161439f604091399050600181016020830160005b868110156123035760038101905062ffffff818a015116603f8160121c168401518060081b905060ff603f83600c1c1686015116810190508060081b905060ff603f8360061c1686015116810190508060081b905060ff603f831686015116810190508060e01b9050808452600484019350505061228a565b50600386066001811461231d576002811461232d57612338565b613d3d60f01b6002830352612338565b603d60f81b60018303525b508484525050819450505050505b919050565b6123e18160405160240161235f9190612b30565b6040516020818303038152906040527f41304fac000000000000000000000000000000000000000000000000000000007bffffffffffffffffffffffffffffffffffffffffffffffffffffffff19166020820180517bffffffffffffffffffffffffffffffffffffffffffffffffffffffff838183161783525050505061248c565b50565b6123fe828260405180602001604052806000815250612647565b5050565b61240b826116f4565b61244a576040517f08c379a000000000000000000000000000000000000000000000000000000000815260040161244190614151565b60405180910390fd5b80600660008481526020019081526020016000209080519060200190612471929190612925565b505050565b6001816000016000828254019250508190555050565b60008151905060006a636f6e736f6c652e6c6f679050602083016000808483855afa5050505050565b505050565b505050565b60006124e08473ffffffffffffffffffffffffffffffffffffffff166126a2565b1561263a578373ffffffffffffffffffffffffffffffffffffffff1663150b7a02612509611760565b8786866040518563ffffffff1660e01b815260040161252b94939291906141c6565b6020604051808303816000875af192505050801561256757506040513d601f19601f820116820180604052508101906125649190614227565b60015b6125ea573d8060008114612597576040519150601f19603f3d011682016040523d82523d6000602084013e61259c565b606091505b506000815114156125e2576040517f08c379a00000000000000000000000000000000000000000000000000000000081526004016125d990613e70565b60405180910390fd5b805181602001fd5b63150b7a0260e01b7bffffffffffffffffffffffffffffffffffffffffffffffffffffffff1916817bffffffffffffffffffffffffffffffffffffffffffffffffffffffff19161491505061263f565b600190505b949350505050565b61265183836126c5565b61265e60008484846124bf565b61269d576040517f08c379a000000000000000000000000000000000000000000000000000000000815260040161269490613e70565b60405180910390fd5b505050565b6000808273ffffffffffffffffffffffffffffffffffffffff163b119050919050565b600073ffffffffffffffffffffffffffffffffffffffff168273ffffffffffffffffffffffffffffffffffffffff161415612735576040517f08c379a000000000000000000000000000000000000000000000000000000000815260040161272c906142a0565b60405180910390fd5b61273e816116f4565b1561277e576040517f08c379a00000000000000000000000000000000000000000000000000000000081526004016127759061430c565b60405180910390fd5b61278a600083836124b5565b6001600360008473ffffffffffffffffffffffffffffffffffffffff1673ffffffffffffffffffffffffffffffffffffffff16815260200190815260200160002060008282546127da9190613d3c565b92505081905550816002600083815260200190815260200160002060006101000a81548173ffffffffffffffffffffffffffffffffffffffff021916908373ffffffffffffffffffffffffffffffffffffffff160217905550808273ffffffffffffffffffffffffffffffffffffffff16600073ffffffffffffffffffffffffffffffffffffffff167fddf252ad1be2c89b69c2b068fc378daa952ba7f163c4a11628f55a4df523b3ef60405160405180910390a461289b600083836124ba565b5050565b8280546128ab906131d2565b90600052602060002090601f0160209004810192826128cd5760008555612914565b82601f106128e657803560ff1916838001178555612914565b82800160010185558215612914579182015b828111156129135782358255916020019190600101906128f8565b5b50905061292191906129ab565b5090565b828054612931906131d2565b90600052602060002090601f016020900481019282612953576000855561299a565b82601f1061296c57805160ff191683800117855561299a565b8280016001018555821561299a579182015b8281111561299957825182559160200191906001019061297e565b5b5090506129a791906129ab565b5090565b5b808211156129c45760008160009055506001016129ac565b5090565b6000604051905090565b600080fd5b600080fd5b60007fffffffff0000000000000000000000000000000000000000000000000000000082169050919050565b612a11816129dc565b8114612a1c57600080fd5b50565b600081359050612a2e81612a08565b92915050565b600060208284031215612a4a57612a496129d2565b5b6000612a5884828501612a1f565b91505092915050565b60008115159050919050565b612a7681612a61565b82525050565b6000602082019050612a916000830184612a6d565b92915050565b600081519050919050565b600082825260208201905092915050565b60005b83811015612ad1578082015181840152602081019050612ab6565b83811115612ae0576000848401525b50505050565b6000601f19601f8301169050919050565b6000612b0282612a97565b612b0c8185612aa2565b9350612b1c818560208601612ab3565b612b2581612ae6565b840191505092915050565b60006020820190508181036000830152612b4a8184612af7565b905092915050565b6000819050919050565b612b6581612b52565b8114612b7057600080fd5b50565b600081359050612b8281612b5c565b92915050565b600060208284031215612b9e57612b9d6129d2565b5b6000612bac84828501612b73565b91505092915050565b600073ffffffffffffffffffffffffffffffffffffffff82169050919050565b6000612be082612bb5565b9050919050565b612bf081612bd5565b82525050565b6000602082019050612c0b6000830184612be7565b92915050565b612c1a81612bd5565b8114612c2557600080fd5b50565b600081359050612c3781612c11565b92915050565b60008060408385031215612c5457612c536129d2565b5b6000612c6285828601612c28565b9250506020612c7385828601612b73565b9150509250929050565b600080fd5b600080fd5b600080fd5b60008083601f840112612ca257612ca1612c7d565b5b8235905067ffffffffffffffff811115612cbf57612cbe612c82565b5b602083019150836001820283011115612cdb57612cda612c87565b5b9250929050565b60008060208385031215612cf957612cf86129d2565b5b600083013567ffffffffffffffff811115612d1757612d166129d7565b5b612d2385828601612c8c565b92509250509250929050565b600080600060608486031215612d4857612d476129d2565b5b6000612d5686828701612c28565b9350506020612d6786828701612c28565b9250506040612d7886828701612b73565b9150509250925092565b600080fd5b7f4e487b7100000000000000000000000000000000000000000000000000000000600052604160045260246000fd5b612dbf82612ae6565b810181811067ffffffffffffffff82111715612dde57612ddd612d87565b5b80604052505050565b6000612df16129c8565b9050612dfd8282612db6565b919050565b600067ffffffffffffffff821115612e1d57612e1c612d87565b5b612e2682612ae6565b9050602081019050919050565b82818337600083830152505050565b6000612e55612e5084612e02565b612de7565b905082815260208101848484011115612e7157612e70612d82565b5b612e7c848285612e33565b509392505050565b600082601f830112612e9957612e98612c7d565b5b8135612ea9848260208601612e42565b91505092915050565b600060208284031215612ec857612ec76129d2565b5b600082013567ffffffffffffffff811115612ee657612ee56129d7565b5b612ef284828501612e84565b91505092915050565b600060208284031215612f1157612f106129d2565b5b6000612f1f84828501612c28565b91505092915050565b612f3181612b52565b82525050565b6000602082019050612f4c6000830184612f28565b92915050565b612f5b81612a61565b8114612f6657600080fd5b50565b600081359050612f7881612f52565b92915050565b60008060408385031215612f9557612f946129d2565b5b6000612fa385828601612c28565b9250506020612fb485828601612f69565b9150509250929050565b600067ffffffffffffffff821115612fd957612fd8612d87565b5b612fe282612ae6565b9050602081019050919050565b6000613002612ffd84612fbe565b612de7565b90508281526020810184848401111561301e5761301d612d82565b5b613029848285612e33565b509392505050565b600082601f83011261304657613045612c7d565b5b8135613056848260208601612fef565b91505092915050565b60008060008060808587031215613079576130786129d2565b5b600061308787828801612c28565b945050602061309887828801612c28565b93505060406130a987828801612b73565b925050606085013567ffffffffffffffff8111156130ca576130c96129d7565b5b6130d687828801613031565b91505092959194509250565b600080600080604085870312156130fc576130fb6129d2565b5b600085013567ffffffffffffffff81111561311a576131196129d7565b5b61312687828801612c8c565b9450945050602085013567ffffffffffffffff811115613149576131486129d7565b5b61315587828801612c8c565b925092505092959194509250565b6000806040838503121561317a576131796129d2565b5b600061318885828601612c28565b925050602061319985828601612c28565b9150509250929050565b7f4e487b7100000000000000000000000000000000000000000000000000000000600052602260045260246000fd5b600060028204905060018216806131ea57607f821691505b602082108114156131fe576131fd6131a3565b5b50919050565b7f4552433732313a20617070726f76656420717565727920666f72206e6f6e657860008201527f697374656e7420746f6b656e0000000000000000000000000000000000000000602082015250565b6000613260602c83612aa2565b915061326b82613204565b604082019050919050565b6000602082019050818103600083015261328f81613253565b9050919050565b7f4552433732313a20617070726f76616c20746f2063757272656e74206f776e6560008201527f7200000000000000000000000000000000000000000000000000000000000000602082015250565b60006132f2602183612aa2565b91506132fd82613296565b604082019050919050565b60006020820190508181036000830152613321816132e5565b9050919050565b7f4552433732313a20617070726f76652063616c6c6572206973206e6f74206f7760008201527f6e6572206e6f7220617070726f76656420666f7220616c6c0000000000000000602082015250565b6000613384603883612aa2565b915061338f82613328565b604082019050919050565b600060208201905081810360008301526133b381613377565b9050919050565b600081905092915050565b60006133d183856133ba565b93506133de838584612e33565b82840190509392505050565b60006133f78284866133c5565b91508190509392505050565b7f4552433732313a207472616e736665722063616c6c6572206973206e6f74206f60008201527f776e6572206e6f7220617070726f766564000000000000000000000000000000602082015250565b600061345f603183612aa2565b915061346a82613403565b604082019050919050565b6000602082019050818103600083015261348e81613452565b9050919050565b7f4552433732313a206f776e657220717565727920666f72206e6f6e657869737460008201527f656e7420746f6b656e0000000000000000000000000000000000000000000000602082015250565b60006134f1602983612aa2565b91506134fc82613495565b604082019050919050565b60006020820190508181036000830152613520816134e4565b9050919050565b7f4552433732313a2062616c616e636520717565727920666f7220746865207a6560008201527f726f206164647265737300000000000000000000000000000000000000000000602082015250565b6000613583602a83612aa2565b915061358e82613527565b604082019050919050565b600060208201905081810360008301526135b281613576565b9050919050565b7f45524337323155524953746f726167653a2055524920717565727920666f722060008201527f6e6f6e6578697374656e7420746f6b656e000000000000000000000000000000602082015250565b6000613615603183612aa2565b9150613620826135b9565b604082019050919050565b6000602082019050818103600083015261364481613608565b9050919050565b600061365682612a97565b61366081856133ba565b9350613670818560208601612ab3565b80840191505092915050565b6000613688828561364b565b9150613694828461364b565b91508190509392505050565b7f4e6f7420656e6f756768204d6174696320706169640000000000000000000000600082015250565b60006136d6601583612aa2565b91506136e1826136a0565b602082019050919050565b60006020820190508181036000830152613705816136c9565b9050919050565b7f2e00000000000000000000000000000000000000000000000000000000000000600082015250565b60006137426001836133ba565b915061374d8261370c565b600182019050919050565b60008190508160005260206000209050919050565b6000815461377a816131d2565b61378481866133ba565b9450600182166000811461379f57600181146137b0576137e3565b60ff198316865281860193506137e3565b6137b985613758565b60005b838110156137db578154818901526001820191506020810190506137bc565b838801955050505b50505092915050565b60006137f98285876133c5565b915061380482613735565b9150613810828461376d565b9150819050949350505050565b6000613829828661376d565b9150613835828561364b565b9150613841828461376d565b9150819050949350505050565b7f7b226e616d65223a220000000000000000000000000000000000000000000000600082015250565b60006138846009836133ba565b915061388f8261384e565b600982019050919050565b7f222c226465736372697074696f6e223a224120646f6d61696e206f66204d5f4d60008201527f204e616d65207365727669636522000000000000000000000000000000000000602082015250565b60006138f6602e836133ba565b91506139018261389a565b602e82019050919050565b7f2c2022696d616765223a2022646174613a696d6167652f7376672b786d6c3b6260008201527f61736536342c0000000000000000000000000000000000000000000000000000602082015250565b60006139686026836133ba565b91506139738261390c565b602682019050919050565b7f222c20226c656e677468223a2200000000000000000000000000000000000000600082015250565b60006139b4600d836133ba565b91506139bf8261397e565b600d82019050919050565b7f227d000000000000000000000000000000000000000000000000000000000000600082015250565b6000613a006002836133ba565b9150613a0b826139ca565b600282019050919050565b6000613a2182613877565b9150613a2d828661364b565b9150613a38826138e9565b9150613a438261395b565b9150613a4f828561364b565b9150613a5a826139a7565b9150613a66828461364b565b9150613a71826139f3565b9150819050949350505050565b7f646174613a6170706c69636174696f6e2f6a736f6e3b6261736536342c000000600082015250565b6000613ab4601d836133ba565b9150613abf82613a7e565b601d82019050919050565b6000613ad582613aa7565b9150613ae1828461364b565b915081905092915050565b60006040820190508181036000830152613b068185612af7565b90508181036020830152613b1a8184612af7565b90509392505050565b7f4552433732313a206f70657261746f7220717565727920666f72206e6f6e657860008201527f697374656e7420746f6b656e0000000000000000000000000000000000000000602082015250565b6000613b7f602c83612aa2565b9150613b8a82613b23565b604082019050919050565b60006020820190508181036000830152613bae81613b72565b9050919050565b7f4552433732313a207472616e736665722066726f6d20696e636f72726563742060008201527f6f776e6572000000000000000000000000000000000000000000000000000000602082015250565b6000613c11602583612aa2565b9150613c1c82613bb5565b604082019050919050565b60006020820190508181036000830152613c4081613c04565b9050919050565b7f4552433732313a207472616e7366657220746f20746865207a65726f2061646460008201527f7265737300000000000000000000000000000000000000000000000000000000602082015250565b6000613ca3602483612aa2565b9150613cae82613c47565b604082019050919050565b60006020820190508181036000830152613cd281613c96565b9050919050565b7f4e487b7100000000000000000000000000000000000000000000000000000000600052601160045260246000fd5b6000613d1382612b52565b9150613d1e83612b52565b925082821015613d3157613d30613cd9565b5b828203905092915050565b6000613d4782612b52565b9150613d5283612b52565b9250827fffffffffffffffffffffffffffffffffffffffffffffffffffffffffffffffff03821115613d8757613d86613cd9565b5b828201905092915050565b7f4552433732313a20617070726f766520746f2063616c6c657200000000000000600082015250565b6000613dc8601983612aa2565b9150613dd382613d92565b602082019050919050565b60006020820190508181036000830152613df781613dbb565b9050919050565b7f4552433732313a207472616e7366657220746f206e6f6e20455243373231526560008201527f63656976657220696d706c656d656e7465720000000000000000000000000000602082015250565b6000613e5a603283612aa2565b9150613e6582613dfe565b604082019050919050565b60006020820190508181036000830152613e8981613e4d565b9050919050565b7f4552433732314d657461646174613a2055524920717565727920666f72206e6f60008201527f6e6578697374656e7420746f6b656e0000000000000000000000000000000000602082015250565b6000613eec602f83612aa2565b9150613ef782613e90565b604082019050919050565b60006020820190508181036000830152613f1b81613edf565b9050919050565b7f4e487b7100000000000000000000000000000000000000000000000000000000600052603260045260246000fd5b6000613f5c82612b52565b91507fffffffffffffffffffffffffffffffffffffffffffffffffffffffffffffffff821415613f8f57613f8e613cd9565b5b600182019050919050565b7f4e487b7100000000000000000000000000000000000000000000000000000000600052601260045260246000fd5b6000613fd482612b52565b9150613fdf83612b52565b925082613fef57613fee613f9a565b5b828204905092915050565b600061400582612b52565b915061401083612b52565b9250826140205761401f613f9a565b5b828206905092915050565b600060808201905081810360008301526140458187612af7565b905081810360208301526140598186612af7565b9050818103604083015261406d8185612af7565b905061407c6060830184612f28565b95945050505050565b600061409082612b52565b915061409b83612b52565b9250817fffffffffffffffffffffffffffffffffffffffffffffffffffffffffffffffff04831182151516156140d4576140d3613cd9565b5b828202905092915050565b7f45524337323155524953746f726167653a2055524920736574206f66206e6f6e60008201527f6578697374656e7420746f6b656e000000000000000000000000000000000000602082015250565b600061413b602e83612aa2565b9150614146826140df565b604082019050919050565b6000602082019050818103600083015261416a8161412e565b9050919050565b600081519050919050565b600082825260208201905092915050565b600061419882614171565b6141a2818561417c565b93506141b2818560208601612ab3565b6141bb81612ae6565b840191505092915050565b60006080820190506141db6000830187612be7565b6141e86020830186612be7565b6141f56040830185612f28565b8181036060830152614207818461418d565b905095945050505050565b60008151905061422181612a08565b92915050565b60006020828403121561423d5761423c6129d2565b5b600061424b84828501614212565b91505092915050565b7f4552433732313a206d696e7420746f20746865207a65726f2061646472657373600082015250565b600061428a602083612aa2565b915061429582614254565b602082019050919050565b600060208201905081810360008301526142b98161427d565b9050919050565b7f4552433732313a20746f6b656e20616c7265616479206d696e74656400000000600082015250565b60006142f6601c83612aa2565b9150614301826142c0565b602082019050919050565b60006020820190508181036000830152614325816142e9565b905091905056fe0a2d2d2d2d2d2d2d2d2d2d2d2d2d2d2d2d2d2d2d2d2d2d2d2d2d2d2d2d2d2d2d2d2d2d2d2d2d2d2d2d2d2d2d2d2d2d2d2d2d2d2d2d2d2d2d2d2d2d2d2d2d2d2d2d2d2d2d2d2d2d2d2d2d2d2d2d2d2d2d2d2d2d2d2d2d2d2d2d2d2d2d2d2d2d2d2d2d2d2d2d2d2d2d2d2d2d2d2d2d2d2d2d0a4142434445464748494a4b4c4d4e4f505152535455565758595a6162636465666768696a6b6c6d6e6f707172737475767778797a303132333435363738392b2f5265676973746572696e672025732e2573206f6e2074686520636f6e7472616374207769746820746f616b656e206964202564a2646970667358221220d32be4d0deeb59f0de9fa91019a762fe4514ced59a47c316aed59b4bf688eb7364736f6c634300080a00333c73766720786d6c6e733d22687474703a2f2f7777772e77332e6f72672f323030302f737667222077696474683d2232373022206865696768743d22323730222066696c6c3d226e6f6e65223e3c706174682066696c6c3d2275726c28236129222066696c7465723d2275726c282362292220643d224d302030683730307637303048307a222f3e3c646566733e3c66696c7465722069643d22632220636f6c6f722d696e746572706f6c6174696f6e2d66696c746572733d2273524742222066696c746572556e6974733d227573657253706163654f6e55736522206865696768743d22323730222077696474683d22323730223e3c666544726f70536861646f772064783d2230222064793d22312220737464446576696174696f6e3d22322220666c6f6f642d6f7061636974793d222e323235222077696474683d223230302522206865696768743d2232303025222f3e3c2f66696c7465723e3c2f646566733e3c7061746820643d224d3433312e31203431372e33203431392e33203338386332382e352d33342e352034352e372d37362e342034392e352d3132316c32382e342d31322e3963302d312e382e312d332e372e312d352e3520302d332d2e312d352e392d2e322d382e386c2d32382e342d3132632d342d34352d32312e362d38372e322d35302e372d3132312e386c31302e382d32382e36632d332e342d332e362d362e392d372d31302e352d31302e346c2d32382031312e33632d33352e312d32392e322d37382d34362e372d3132332e362d35302e334c323534202e31632d312e3820302d332e362d2e312d352e342d2e312d322e3920302d352e382e312d382e372e326c2d31322032382e32632d343520342e332d38372e312032322e312d3132312e352035312e354c37372e312036382e38632d332e3420332e322d362e3620362e352d392e3820392e396c31312e37203239632d32382e372033342e382d34352e392037372e312d34392e35203132322e324c2e31203234332e31633020312e382d2e3120332e372d2e3120352e3520302033202e3120352e392e3220382e384c33302032373063342e352034342e362032322e322038362e322035312e33203132302e344c36392e372034323163332e3220332e3320362e3420362e3520392e3820392e366c33302e332d31322e326333342e332032382e312037352e38203435203132302034382e386c31332e352032392e3963312e38203020332e362e3120352e342e3120322e39203020352e382d2e3120382e372d2e326c31322e372d32392e396334342e362d342e322038362e342d32312e36203132302e372d35302e346c32392e392031312e3363332e352d332e3420372d372031302e342d31302e377a6d2d3233382e372d3330352d34342e332d31362e37433136362e382038332e3120313838203734203231302e372036392e316c2d31382e332034332e327a6d35352e39203232332e32632d34372e3920302d38362e392d33392d38362e392d38362e397333392d38362e392038362e392d38362e392038362e392033392038362e392038362e392d33392038362e392d38362e392038362e397a6d39352e312d3131332e372036312e312032352e392d36312e322032382e3363322e352d382e3720332e382d31372e3820332e382d32372e3320302d392e342d312e322d31382e342d332e372d32362e397a6d34322d32392e342031362e382d34342e366331322e332031382e382032312e332034302032362036322e376c2d34322e382d31382e317a6d2d38372e312d32392036302e372d32342e352d32332e372036322e38632d382e372d31352e392d32312e352d32392e322d33372d33382e337a6d362e372d35302e352d32302d34342e346332332e3420342e372034352e322031332e382036342e342032362e354c333035203131322e397a6d2d35362e372033362e39632d382e3320302d31362e3420312d32342e3120334c3234392039342e336c32362e382035392e34632d382e372d322e362d31382d332e392d32372e352d332e397a6d2d38342e352034372e362d32332e322d35372e332035392e332032322e34632d31342e3820382e332d32372e332032302e342d33362e312033342e397a6d2d35302e362d352e344c3730203231312e3563342e362d32322e372031332e342d34332e392032352e362d36322e386c31372e362034332e337a6d33392e352038312e392d35372e322d32342e332035372e312d32352e38632d322e3120372e392d332e322031362e332d332e322032342e39203020382e3720312e312031372e3120332e332032352e327a6d2d33392e342033312e364c3937203334382e38632d31322e332d31382e342d32312e332d33392e312d32362e322d36312e346c34322e352031382e317a6d38362e382032392e354c313432203335382e356c32312e392d35382e3163392031342e332032312e342032362e332033362e322033342e367a6d2d372e362035302031382e382034312e36632d32312e382d342e362d34322e322d31332e312d36302e342d32342e386c34312e362d31362e387a6d35352e382d33372e3563392e3720302031392d312e342032372e392d344c3235302e39203430336c2d32362e342d35382e3363372e3720312e382031352e3620322e382032332e3820322e387a6d35362e382033372034332e372031362e35632d31382e352031322e312d33392e332032302e392d36312e352032352e366c31372e382d34322e317a6d33302e332d38392e322032352036312e392d36322d32332e346331352e362d392e322032382e342d32322e352033372d33382e357a6d39322e372d392e39632d342e372032322e332d31332e342034332e312d32352e342036312e366c2d31372e312d34322e332034322e352d31392e337a6d2d32302037356331362e382d32332e362032382e352d35312e322033332e332d38316c31342e372d362e36632d342e362033382e332d31392e362037332e342d34322e31203130322e346c2d352e392d31342e387a6d2d33302e352d36352e332d32342e382d31302e332038312e352d33372e352d38312e392d33342e372032352e332d31302e33203130362034352d3130362e312034372e387a6d36332e382d37382e39632d342e392d33302e322d31362e392d35382e312d33342e312d38326c352e372d31352e316332332032392e322033382e332036342e36203433203130332e336c2d31342e362d362e327a6d2d36382e312d32352e372d32342e392031302e332033312e352d38332e342d38332e332033332e372031312e312d32362e33203130362e372d34332e322d34312e31203130382e397a6d2d31302e362d313031413139332e3939203139332e3939203020302030203237392035352e326c2d362e362d31342e366333392e3420342e342037352e342031392e37203130352e312034322e396c2d31342e3820367a4d3239352e31203132306c2d31302e322032342e362d33362e332d38302e322d33352e312038322e382d31302e392d32362e322d2e342d312034352d3130362034372e39203130367a6d2d37382e372d36342e32632d33302e3220352e322d35382e312031372e332d38312e392033342e376c2d31352d352e37433134382e362036312e36203138332e39203436203232322e362034316c2d362e322031342e387a6d2d32352e332036382e382e342e392031302e312032342e382d38322e342d33312e312033332e342038322e352d32372e312d31312e344c38322e322038332e356c3130382e392034312e317a4d39302e32203133352e33632d31372032342d32382e372035312e392d33332e352038322e326c2d31342e3620362e3663342e342d33382e372031392e342d37342e322034322e312d3130332e366c362031342e387a6d32392e352036362e392032362e392031312e312d38312033362e362038302e382033342e332d32362e372031302e392d3130362d3435203130362d34372e397a6d2d36322e332037392e3663352e332032392e382031372e332035372e322033342e352038302e376c2d352e37203135632d32322e392d32382e382d33382e342d36332e372d34332e352d3130312e396c31342e3720362e327a6d36382e332032352032372e332d31312e332d33312e382038342e342038302e352d33322e352d31302e352032352e332d3130362e362034332034312e312d3130382e397a6d31312e38203130302e346332332e342031362e342035302e352032372e382037392e392033322e376c362e362031342e37632d33372e382d342e362d37322e352d31392e332d3130312e332d34312e346c31342e382d367a6d36342e382d32392e382031312e352d32372e342033372e352038322e392033332e392d37392e392031302032342e342d3435203130362d34372e392d3130367a6d37392e342036322e346332392e382d352035372e332d31362e382038302e392d33332e376c31352e3120352e37632d32382e392032322e372d36342033372e392d3130322e322034322e376c362e322d31342e377a6d32362e312d36372e312d31312d32362e362038352e312033322e312d33322e392d38312e352032342e372031302e342034332e32203130362e372d3130392e312d34312e317a22207374796c653d2266696c6c3a23663265646462222f3e3c646566733e3c6c696e6561724772616469656e74206772616469656e745472616e73666f726d3d22726f7461746528313530202e35202e3529222078313d22353025222079313d223025222078323d22353025222079323d2231303025222069643d2261223e3c73746f702073746f702d636f6c6f723d2268736c283335332c203938252c203431252922206f66667365743d223025222f3e3c73746f702073746f702d636f6c6f723d2268736c283335332c203938252c203431252922206f66667365743d2231303025222f3e3c2f6c696e6561724772616469656e743e3c66696c7465722069643d22622220783d222d3230252220793d222d323025222077696474683d223134302522206865696768743d2231343025222066696c746572556e6974733d226f626a656374426f756e64696e67426f7822207072696d6974697665556e6974733d227573657253706163654f6e5573652220636f6c6f722d696e746572706f6c6174696f6e2d66696c746572733d2273524742223e3c666554757262756c656e636520747970653d226672616374616c4e6f6973652220626173654672657175656e63793d22302e30303620302e3030332220736565643d223932222073746974636854696c65733d227374697463682220783d2230252220793d223025222077696474683d223130302522206865696768743d22313030252220726573756c743d2274757262756c656e6365222f3e3c6665476175737369616e426c757220737464446576696174696f6e3d22323020302220783d2230252220793d223025222077696474683d223130302522206865696768743d22313030252220696e3d2274757262756c656e63652220726573756c743d22626c7572222f3e3c6665426c656e64206d6f64653d22636f6c6f722d646f6467652220783d2230252220793d223025222077696474683d223130302522206865696768743d22313030252220696e3d22536f75726365477261706869632220696e323d22626c75722220726573756c743d22626c656e64222f3e3c2f66696c7465723e3c2f646566733e3c7465787420783d22352220793d2232352220666f6e742d73697a653d223237222066696c6c3d2223666666222066696c7465723d2275726c282363292220666f6e742d66616d696c793d22506c7573204a616b617274612053616e732c44656a6156752053616e732c4e6f746f20436f6c6f7220456d6f6a692c4170706c6520436f6c6f7220456d6f6a692c73616e732d73657269662220666f6e742d7765696768743d22626f6c64223e",
  "linkReferences": {},
  "deployedLinkReferences": {}
}